{
  "contractName": "Discredit",
  "abi": [
    {
      "constant": true,
      "inputs": [
        {
          "name": "",
          "type": "address"
        }
      ],
      "name": "count",
      "outputs": [
        {
          "name": "voteReal",
          "type": "uint256"
        },
        {
          "name": "voteFake",
          "type": "uint256"
        }
      ],
      "payable": false,
      "type": "function",
      "stateMutability": "view"
    },
    {
      "constant": true,
      "inputs": [],
      "name": "name",
      "outputs": [
        {
          "name": "",
          "type": "string"
        }
      ],
      "payable": false,
      "type": "function",
      "stateMutability": "view"
    },
    {
      "constant": false,
      "inputs": [],
      "name": "executeOutcomes",
      "outputs": [],
      "payable": false,
      "type": "function",
      "stateMutability": "nonpayable"
    },
    {
      "constant": true,
      "inputs": [],
      "name": "totalSupply",
      "outputs": [
        {
          "name": "",
          "type": "uint256"
        }
      ],
      "payable": false,
      "type": "function",
      "stateMutability": "view"
    },
    {
      "constant": false,
      "inputs": [],
      "name": "register",
      "outputs": [],
      "payable": false,
      "type": "function",
      "stateMutability": "nonpayable"
    },
    {
      "constant": true,
      "inputs": [
        {
          "name": "",
          "type": "address"
        }
      ],
      "name": "balances",
      "outputs": [
        {
          "name": "",
          "type": "uint256"
        }
      ],
      "payable": false,
      "type": "function",
      "stateMutability": "view"
    },
    {
      "constant": false,
      "inputs": [
        {
          "name": "user1",
          "type": "address"
        },
        {
          "name": "user2",
          "type": "address"
        }
      ],
      "name": "verify",
      "outputs": [
        {
          "name": "",
          "type": "bool"
        }
      ],
      "payable": false,
      "type": "function",
      "stateMutability": "nonpayable"
    },
    {
      "constant": true,
      "inputs": [],
      "name": "decimals",
      "outputs": [
        {
          "name": "",
          "type": "uint8"
        }
      ],
      "payable": false,
      "type": "function",
      "stateMutability": "view"
    },
    {
      "constant": false,
      "inputs": [
        {
          "name": "voteType",
          "type": "uint256"
        }
      ],
      "name": "castVote",
      "outputs": [],
      "payable": false,
      "type": "function",
      "stateMutability": "nonpayable"
    },
    {
      "constant": true,
      "inputs": [
        {
          "name": "",
          "type": "address"
        },
        {
          "name": "",
          "type": "address"
        }
      ],
      "name": "verifiedConnections",
      "outputs": [
        {
          "name": "",
          "type": "bool"
        }
      ],
      "payable": false,
      "type": "function",
      "stateMutability": "view"
    },
    {
      "constant": true,
      "inputs": [],
      "name": "sellPrice",
      "outputs": [
        {
          "name": "",
          "type": "uint256"
        }
      ],
      "payable": false,
      "type": "function",
      "stateMutability": "view"
    },
    {
      "constant": false,
      "inputs": [
        {
          "name": "addr",
          "type": "address"
        }
      ],
      "name": "getIdentityFundBalance",
      "outputs": [
        {
          "name": "",
          "type": "uint256"
        }
      ],
      "payable": false,
      "type": "function",
      "stateMutability": "nonpayable"
    },
    {
      "constant": false,
      "inputs": [
        {
          "name": "target",
          "type": "address"
        }
      ],
      "name": "getVoteType",
      "outputs": [
        {
          "name": "",
          "type": "uint256"
        }
      ],
      "payable": false,
      "type": "function",
      "stateMutability": "nonpayable"
    },
    {
      "constant": true,
      "inputs": [
        {
          "name": "_owner",
          "type": "address"
        }
      ],
      "name": "balanceOf",
      "outputs": [
        {
          "name": "balance",
          "type": "uint256"
        }
      ],
      "payable": false,
      "type": "function",
      "stateMutability": "view"
    },
    {
      "constant": false,
      "inputs": [
        {
          "name": "user1",
          "type": "address"
        },
        {
          "name": "user2",
          "type": "address"
        }
      ],
      "name": "getConnectionStatus",
      "outputs": [
        {
          "name": "",
          "type": "bool"
        }
      ],
      "payable": false,
      "type": "function",
      "stateMutability": "nonpayable"
    },
    {
      "constant": false,
      "inputs": [],
      "name": "getOutcome",
      "outputs": [
        {
          "name": "",
          "type": "bool"
        }
      ],
      "payable": false,
      "type": "function",
      "stateMutability": "nonpayable"
    },
    {
      "constant": false,
      "inputs": [
        {
          "name": "target",
          "type": "address"
        }
      ],
      "name": "makeConnection",
      "outputs": [
        {
          "name": "",
          "type": "bool"
        }
      ],
      "payable": false,
      "type": "function",
      "stateMutability": "nonpayable"
    },
    {
      "constant": false,
      "inputs": [],
      "name": "destroy",
      "outputs": [],
      "payable": false,
      "type": "function",
      "stateMutability": "nonpayable"
    },
    {
      "constant": true,
      "inputs": [],
      "name": "buyPrice",
      "outputs": [
        {
          "name": "",
          "type": "uint256"
        }
      ],
      "payable": false,
      "type": "function",
      "stateMutability": "view"
    },
    {
      "constant": true,
      "inputs": [],
      "name": "owner",
      "outputs": [
        {
          "name": "",
          "type": "address"
        }
      ],
      "payable": false,
      "type": "function",
      "stateMutability": "view"
    },
    {
      "constant": false,
      "inputs": [],
      "name": "buy",
      "outputs": [],
      "payable": true,
      "type": "function",
      "stateMutability": "payable"
    },
    {
      "constant": false,
      "inputs": [
        {
          "name": "to",
          "type": "address"
        },
        {
          "name": "value",
          "type": "uint256"
        }
      ],
      "name": "transfer",
      "outputs": [],
      "payable": false,
      "type": "function",
      "stateMutability": "nonpayable"
    },
    {
      "constant": false,
      "inputs": [
        {
          "name": "voteType",
          "type": "uint256"
        }
      ],
      "name": "getVoteCount",
      "outputs": [
        {
          "name": "",
          "type": "uint256"
        }
      ],
      "payable": false,
      "type": "function",
      "stateMutability": "nonpayable"
    },
    {
      "constant": true,
      "inputs": [
        {
          "name": "",
          "type": "address"
        },
        {
          "name": "",
          "type": "address"
        }
      ],
      "name": "approvedConnections",
      "outputs": [
        {
          "name": "",
          "type": "bool"
        }
      ],
      "payable": false,
      "type": "function",
      "stateMutability": "view"
    },
    {
      "constant": true,
      "inputs": [
        {
          "name": "",
          "type": "address"
        }
      ],
      "name": "IdentityFundBalance",
      "outputs": [
        {
          "name": "",
          "type": "uint256"
        }
      ],
      "payable": false,
      "type": "function",
      "stateMutability": "view"
    },
    {
      "constant": true,
      "inputs": [
        {
          "name": "",
          "type": "uint256"
        }
      ],
      "name": "voters",
      "outputs": [
        {
          "name": "voteType",
          "type": "uint8"
        },
        {
          "name": "voted",
          "type": "bool"
        },
        {
          "name": "voterAddress",
          "type": "address"
        }
      ],
      "payable": false,
      "type": "function",
      "stateMutability": "view"
    },
    {
      "constant": true,
      "inputs": [
        {
          "name": "",
          "type": "address"
        }
      ],
      "name": "voterID",
      "outputs": [
        {
          "name": "",
          "type": "uint256"
        },
        {
          "name": "voted",
          "type": "bool"
        },
        {
          "name": "voterAddress",
          "type": "address"
        }
      ],
      "payable": false,
      "type": "function",
      "stateMutability": "view"
    },
    {
      "constant": false,
      "inputs": [
        {
          "name": "amount",
          "type": "uint256"
        }
      ],
      "name": "sell",
      "outputs": [
        {
          "name": "",
          "type": "uint256"
        }
      ],
      "payable": false,
      "type": "function",
      "stateMutability": "nonpayable"
    },
    {
      "constant": true,
      "inputs": [
        {
          "name": "",
          "type": "address"
        }
      ],
      "name": "isFrozen",
      "outputs": [
        {
          "name": "",
          "type": "bool"
        }
      ],
      "payable": false,
      "type": "function",
      "stateMutability": "view"
    },
    {
      "constant": false,
      "inputs": [
        {
          "name": "target",
          "type": "address"
        }
      ],
      "name": "freezeAccount",
      "outputs": [
        {
          "name": "",
          "type": "bool"
        }
      ],
      "payable": false,
      "type": "function",
      "stateMutability": "nonpayable"
    },
    {
      "constant": false,
      "inputs": [
        {
          "name": "newOwner",
          "type": "address"
        }
      ],
      "name": "transferOwnership",
      "outputs": [],
      "payable": false,
      "type": "function",
      "stateMutability": "nonpayable"
    },
    {
      "constant": true,
      "inputs": [
        {
          "name": "",
          "type": "address"
        }
      ],
      "name": "blacklist",
      "outputs": [
        {
          "name": "",
          "type": "bool"
        }
      ],
      "payable": false,
      "type": "function",
      "stateMutability": "view"
    },
    {
      "constant": false,
      "inputs": [
        {
          "name": "addr",
          "type": "address"
        }
      ],
      "name": "isBlacklisted",
      "outputs": [
        {
          "name": "",
          "type": "bool"
        }
      ],
      "payable": false,
      "type": "function",
      "stateMutability": "nonpayable"
    },
    {
      "constant": false,
      "inputs": [
        {
          "name": "target",
          "type": "address"
        }
      ],
      "name": "isBlacklisted",
      "outputs": [
        {
          "name": "",
          "type": "bool"
        }
      ],
      "payable": false,
      "type": "constructor",
      "stateMutability": "nonpayable"
    },
    {
      "inputs": [
        {
          "name": "account1",
          "type": "address",
          "indexed": false
        },
        {
          "indexed": false,
          "name": "account2",
          "type": "address"
        }
      ],
      "payable": false,
      "type": "event",
      "anonymous": false,
      "name": "ConnectionMade"
    },
    {
      "anonymous": false,
      "inputs": [
        {
          "indexed": true,
          "name": "from",
          "type": "address"
        },
        {
          "indexed": true,
          "name": "to",
          "type": "address"
        },
        {
          "indexed": false,
          "name": "value",
          "type": "uint256"
        }
      ],
      "name": "Transfer",
      "type": "event"
    },
    {
      "anonymous": false,
      "inputs": [
        {
          "indexed": true,
          "name": "from",
          "type": "address"
        },
        {
          "indexed": true,
          "name": "to",
          "type": "address"
        },
        {
          "indexed": false,
          "name": "value",
          "type": "uint256"
        }
      ],
      "name": "Transfer",
      "type": "event"
    }
  ],
  "bytecode": "0x6060604052606460085534156200001557600080fd5b604051602080620035e183398101604052808051906020019091905050612710336000806101000a81548173ffffffffffffffffffffffffffffffffffffffff021916908373ffffffffffffffffffffffffffffffffffffffff16021790555080600660003073ffffffffffffffffffffffffffffffffffffffff1673ffffffffffffffffffffffffffffffffffffffff16815260200190815260200160002081905550806003819055506040805190810160405280600781526020017f566f756368657200000000000000000000000000000000000000000000000000815250600190805190602001906200010d92919062000171565b5060016004819055505080601160006101000a81548173ffffffffffffffffffffffffffffffffffffffff021916908373ffffffffffffffffffffffffffffffffffffffff16021790555043601281905550615c3043016013819055505062000220565b828054600181600116156101000203166002900490600052602060002090601f016020900481019282601f10620001b457805160ff1916838001178555620001e5565b82800160010185558215620001e5579182015b82811115620001e4578251825591602001919060010190620001c7565b5b509050620001f49190620001f8565b5090565b6200021d91905b8082111562000219576000816000905550600101620001ff565b5090565b90565b6133b180620002306000396000f3006060604052600436106101a1576000357c0100000000000000000000000000000000000000000000000000000000900463ffffffff16806305d85eda146101a657806306fdde03146101fa5780630f1d546e1461028857806318160ddd1461029d5780631aa3a008146102c657806327e235e3146102db5780632c2146aa14610328578063313ce567146103985780633eb76b9c146103c75780633f6a2abf146103ea5780634b7503341461045a57806363e901391461048357806369e0a1f7146104d057806370a082311461051d5780637942c2431461056a5780637e7e4b47146105da578063809b9b401461060757806383197ef0146106585780638620410b1461066d5780638da5cb5b14610696578063a6f2ae3a146106eb578063a9059cbb146106f5578063b2c2f2e814610737578063bbdc45b41461076e578063c56ec4c0146107de578063da58c7d91461082b578063dbade2c2146108a6578063e4849b32146108f3578063e583983614610916578063f26c159f14610967578063f2fde38b146109a0578063f9f92be4146109d9578063fe575a8714610a2a575b600080fd5b34156101b157600080fd5b6101dd600480803573ffffffffffffffffffffffffffffffffffffffff16906020019091905050610a7b565b604051808381526020018281526020019250505060405180910390f35b341561020557600080fd5b61020d610a9f565b6040518080602001828103825283818151815260200191508051906020019080838360005b8381101561024d578082015181840152602081019050610232565b50505050905090810190601f16801561027a5780820380516001836020036101000a031916815260200191505b509250505060405180910390f35b341561029357600080fd5b61029b610b3d565b005b34156102a857600080fd5b6102b061191c565b6040518082815260200191505060405180910390f35b34156102d157600080fd5b6102d9611926565b005b34156102e657600080fd5b610312600480803573ffffffffffffffffffffffffffffffffffffffff16906020019091905050611be8565b6040518082815260200191505060405180910390f35b341561033357600080fd5b61037e600480803573ffffffffffffffffffffffffffffffffffffffff1690602001909190803573ffffffffffffffffffffffffffffffffffffffff16906020019091905050611c00565b604051808215151515815260200191505060405180910390f35b34156103a357600080fd5b6103ab61217d565b604051808260ff1660ff16815260200191505060405180910390f35b34156103d257600080fd5b6103e86004808035906020019091905050612190565b005b34156103f557600080fd5b610440600480803573ffffffffffffffffffffffffffffffffffffffff1690602001909190803573ffffffffffffffffffffffffffffffffffffffff169060200190919050506125f0565b604051808215151515815260200191505060405180910390f35b341561046557600080fd5b61046d61261f565b6040518082815260200191505060405180910390f35b341561048e57600080fd5b6104ba600480803573ffffffffffffffffffffffffffffffffffffffff16906020019091905050612625565b6040518082815260200191505060405180910390f35b34156104db57600080fd5b610507600480803573ffffffffffffffffffffffffffffffffffffffff1690602001909190505061266e565b6040518082815260200191505060405180910390f35b341561052857600080fd5b610554600480803573ffffffffffffffffffffffffffffffffffffffff169060200190919050506126e4565b6040518082815260200191505060405180910390f35b341561057557600080fd5b6105c0600480803573ffffffffffffffffffffffffffffffffffffffff1690602001909190803573ffffffffffffffffffffffffffffffffffffffff1690602001909190505061272d565b604051808215151515815260200191505060405180910390f35b34156105e557600080fd5b6105ed6127c1565b604051808215151515815260200191505060405180910390f35b341561061257600080fd5b61063e600480803573ffffffffffffffffffffffffffffffffffffffff16906020019091905050612893565b604051808215151515815260200191505060405180910390f35b341561066357600080fd5b61066b612933565b005b341561067857600080fd5b6106806129c8565b6040518082815260200191505060405180910390f35b34156106a157600080fd5b6106a96129ce565b604051808273ffffffffffffffffffffffffffffffffffffffff1673ffffffffffffffffffffffffffffffffffffffff16815260200191505060405180910390f35b6106f36129f3565b005b341561070057600080fd5b610735600480803573ffffffffffffffffffffffffffffffffffffffff16906020019091908035906020019091905050612a6c565b005b341561074257600080fd5b6107586004808035906020019091905050612a7b565b6040518082815260200191505060405180910390f35b341561077957600080fd5b6107c4600480803573ffffffffffffffffffffffffffffffffffffffff1690602001909190803573ffffffffffffffffffffffffffffffffffffffff16906020019091905050612b6d565b604051808215151515815260200191505060405180910390f35b34156107e957600080fd5b610815600480803573ffffffffffffffffffffffffffffffffffffffff16906020019091905050612b9c565b6040518082815260200191505060405180910390f35b341561083657600080fd5b61084c6004808035906020019091905050612bb4565b604051808460ff1660ff168152602001831515151581526020018273ffffffffffffffffffffffffffffffffffffffff1673ffffffffffffffffffffffffffffffffffffffff168152602001935050505060405180910390f35b34156108b157600080fd5b6108dd600480803573ffffffffffffffffffffffffffffffffffffffff16906020019091905050612c24565b6040518082815260200191505060405180910390f35b34156108fe57600080fd5b6109146004808035906020019091905050612c3c565b005b341561092157600080fd5b61094d600480803573ffffffffffffffffffffffffffffffffffffffff16906020019091905050612cb8565b604051808215151515815260200191505060405180910390f35b341561097257600080fd5b61099e600480803573ffffffffffffffffffffffffffffffffffffffff16906020019091905050612cd8565b005b34156109ab57600080fd5b6109d7600480803573ffffffffffffffffffffffffffffffffffffffff16906020019091905050612d8e565b005b34156109e457600080fd5b610a10600480803573ffffffffffffffffffffffffffffffffffffffff16906020019091905050612e2c565b604051808215151515815260200191505060405180910390f35b3415610a3557600080fd5b610a61600480803573ffffffffffffffffffffffffffffffffffffffff16906020019091905050612e4c565b604051808215151515815260200191505060405180910390f35b600d6020528060005260406000206000915090508060000154908060010154905082565b60018054600181600116156101000203166002900480601f016020809104026020016040519081016040528092919081815260200182805460018160011615610100020316600290048015610b355780601f10610b0a57610100808354040283529160200191610b35565b820191906000526020600020905b815481529060010190602001808311610b1857829003601f168201915b505050505081565b600080600d6000601160009054906101000a900473ffffffffffffffffffffffffffffffffffffffff1673ffffffffffffffffffffffffffffffffffffffff1673ffffffffffffffffffffffffffffffffffffffff16815260200190815260200160002060010154600d6000601160009054906101000a900473ffffffffffffffffffffffffffffffffffffffff1673ffffffffffffffffffffffffffffffffffffffff1673ffffffffffffffffffffffffffffffffffffffff16815260200190815260200160002060000154119150600090505b600c805490508163ffffffff161015611918576000600c8263ffffffff16815481101515610c3c57fe5b906000526020600020900160000160009054906101000a900460ff1660ff16148015610c6c575060001515821515145b156110025760085460096000601160009054906101000a900473ffffffffffffffffffffffffffffffffffffffff1673ffffffffffffffffffffffffffffffffffffffff1673ffffffffffffffffffffffffffffffffffffffff1681526020019081526020016000206000828254039250508190555060085460096000600c8463ffffffff16815481101515610cfe57fe5b906000526020600020900160000160029054906101000a900473ffffffffffffffffffffffffffffffffffffffff1673ffffffffffffffffffffffffffffffffffffffff1673ffffffffffffffffffffffffffffffffffffffff1681526020019081526020016000206000828254039250508190555060026008540260066000600c8463ffffffff16815481101515610d9357fe5b906000526020600020900160000160029054906101000a900473ffffffffffffffffffffffffffffffffffffffff1673ffffffffffffffffffffffffffffffffffffffff1673ffffffffffffffffffffffffffffffffffffffff168152602001908152602001600020600082825401925050819055506000600a6000600c8463ffffffff16815481101515610e2457fe5b906000526020600020900160000160029054906101000a900473ffffffffffffffffffffffffffffffffffffffff1673ffffffffffffffffffffffffffffffffffffffff1673ffffffffffffffffffffffffffffffffffffffff1681526020019081526020016000206000601160009054906101000a900473ffffffffffffffffffffffffffffffffffffffff1673ffffffffffffffffffffffffffffffffffffffff1673ffffffffffffffffffffffffffffffffffffffff16815260200190815260200160002060006101000a81548160ff0219169083151502179055506000600a6000601160009054906101000a900473ffffffffffffffffffffffffffffffffffffffff1673ffffffffffffffffffffffffffffffffffffffff1673ffffffffffffffffffffffffffffffffffffffff1681526020019081526020016000206000600c8463ffffffff16815481101515610f7d57fe5b906000526020600020900160000160029054906101000a900473ffffffffffffffffffffffffffffffffffffffff1673ffffffffffffffffffffffffffffffffffffffff1673ffffffffffffffffffffffffffffffffffffffff16815260200190815260200160002060006101000a81548160ff02191690831515021790555061190b565b6001600c8263ffffffff1681548110151561101957fe5b906000526020600020900160000160009054906101000a900460ff1660ff16148015611049575060001515821515145b8061109757506002600c8263ffffffff1681548110151561106657fe5b906000526020600020900160000160009054906101000a900460ff1660ff16148015611096575060001515821515145b5b156114ff5760085460096000601160009054906101000a900473ffffffffffffffffffffffffffffffffffffffff1673ffffffffffffffffffffffffffffffffffffffff1673ffffffffffffffffffffffffffffffffffffffff1681526020019081526020016000206000828254039250508190555060085460096000600c8463ffffffff1681548110151561112957fe5b906000526020600020900160000160029054906101000a900473ffffffffffffffffffffffffffffffffffffffff1673ffffffffffffffffffffffffffffffffffffffff1673ffffffffffffffffffffffffffffffffffffffff16815260200190815260200160002060008282540392505081905550600260085402600660003073ffffffffffffffffffffffffffffffffffffffff1673ffffffffffffffffffffffffffffffffffffffff168152602001908152602001600020600082825401925050819055506000600a6000600c8463ffffffff1681548110151561120c57fe5b906000526020600020900160000160029054906101000a900473ffffffffffffffffffffffffffffffffffffffff1673ffffffffffffffffffffffffffffffffffffffff1673ffffffffffffffffffffffffffffffffffffffff1681526020019081526020016000206000601160009054906101000a900473ffffffffffffffffffffffffffffffffffffffff1673ffffffffffffffffffffffffffffffffffffffff1673ffffffffffffffffffffffffffffffffffffffff16815260200190815260200160002060006101000a81548160ff0219169083151502179055506000600a6000601160009054906101000a900473ffffffffffffffffffffffffffffffffffffffff1673ffffffffffffffffffffffffffffffffffffffff1673ffffffffffffffffffffffffffffffffffffffff1681526020019081526020016000206000600c8463ffffffff1681548110151561136557fe5b906000526020600020900160000160029054906101000a900473ffffffffffffffffffffffffffffffffffffffff1673ffffffffffffffffffffffffffffffffffffffff1673ffffffffffffffffffffffffffffffffffffffff16815260200190815260200160002060006101000a81548160ff021916908315150217905550600160076000601160009054906101000a900473ffffffffffffffffffffffffffffffffffffffff1673ffffffffffffffffffffffffffffffffffffffff1673ffffffffffffffffffffffffffffffffffffffff16815260200190815260200160002060006101000a81548160ff0219169083151502179055506001600f6000600c8463ffffffff1681548110151561147a57fe5b906000526020600020900160000160029054906101000a900473ffffffffffffffffffffffffffffffffffffffff1673ffffffffffffffffffffffffffffffffffffffff1673ffffffffffffffffffffffffffffffffffffffff16815260200190815260200160002060006101000a81548160ff02191690831515021790555061190a565b6000600c8263ffffffff1681548110151561151657fe5b906000526020600020900160000160009054906101000a900460ff1660ff16148015611546575060011515821515145b156118475760085460096000600c8463ffffffff1681548110151561156757fe5b906000526020600020900160000160029054906101000a900473ffffffffffffffffffffffffffffffffffffffff1673ffffffffffffffffffffffffffffffffffffffff1673ffffffffffffffffffffffffffffffffffffffff1681526020019081526020016000206000828254039250508190555060085460066000601160009054906101000a900473ffffffffffffffffffffffffffffffffffffffff1673ffffffffffffffffffffffffffffffffffffffff1673ffffffffffffffffffffffffffffffffffffffff168152602001908152602001600020600082825401925050819055506000600a6000600c8463ffffffff1681548110151561166957fe5b906000526020600020900160000160029054906101000a900473ffffffffffffffffffffffffffffffffffffffff1673ffffffffffffffffffffffffffffffffffffffff1673ffffffffffffffffffffffffffffffffffffffff1681526020019081526020016000206000601160009054906101000a900473ffffffffffffffffffffffffffffffffffffffff1673ffffffffffffffffffffffffffffffffffffffff1673ffffffffffffffffffffffffffffffffffffffff16815260200190815260200160002060006101000a81548160ff0219169083151502179055506000600a6000601160009054906101000a900473ffffffffffffffffffffffffffffffffffffffff1673ffffffffffffffffffffffffffffffffffffffff1673ffffffffffffffffffffffffffffffffffffffff1681526020019081526020016000206000600c8463ffffffff168154811015156117c257fe5b906000526020600020900160000160029054906101000a900473ffffffffffffffffffffffffffffffffffffffff1673ffffffffffffffffffffffffffffffffffffffff1673ffffffffffffffffffffffffffffffffffffffff16815260200190815260200160002060006101000a81548160ff021916908315150217905550611909565b6002600c8263ffffffff1681548110151561185e57fe5b906000526020600020900160000160009054906101000a900460ff1660ff1614801561188e575060011515821515145b1561190757611902601160009054906101000a900473ffffffffffffffffffffffffffffffffffffffff16600c8363ffffffff168154811015156118ce57fe5b906000526020600020900160000160029054906101000a900473ffffffffffffffffffffffffffffffffffffffff16612ea2565b611908565b5b5b5b5b8080600101915050610c12565b5050565b6000600354905090565b600a6000601160009054906101000a900473ffffffffffffffffffffffffffffffffffffffff1673ffffffffffffffffffffffffffffffffffffffff1673ffffffffffffffffffffffffffffffffffffffff16815260200190815260200160002060003373ffffffffffffffffffffffffffffffffffffffff1673ffffffffffffffffffffffffffffffffffffffff16815260200190815260200160002060009054906101000a900460ff168015611a865750600a60003373ffffffffffffffffffffffffffffffffffffffff1673ffffffffffffffffffffffffffffffffffffffff1681526020019081526020016000206000601160009054906101000a900473ffffffffffffffffffffffffffffffffffffffff1673ffffffffffffffffffffffffffffffffffffffff1673ffffffffffffffffffffffffffffffffffffffff16815260200190815260200160002060009054906101000a900460ff165b1515611a9157600080fd5b4360125411158015611aa557506013544311155b1515611ab057600080fd5b600c8054806001018281611ac491906132eb565b91600052602060002090016000606060405190810160405280600260ff1681526020016000151581526020013373ffffffffffffffffffffffffffffffffffffffff16815250909190915060008201518160000160006101000a81548160ff021916908360ff16021790555060208201518160000160016101000a81548160ff02191690831515021790555060408201518160000160026101000a81548173ffffffffffffffffffffffffffffffffffffffff021916908373ffffffffffffffffffffffffffffffffffffffff1602179055505050506001600c8054905003600e60003373ffffffffffffffffffffffffffffffffffffffff1673ffffffffffffffffffffffffffffffffffffffff16815260200190815260200160002081905550565b60066020528060005260406000206000915090505481565b6000600a60008473ffffffffffffffffffffffffffffffffffffffff1673ffffffffffffffffffffffffffffffffffffffff16815260200190815260200160002060008373ffffffffffffffffffffffffffffffffffffffff1673ffffffffffffffffffffffffffffffffffffffff16815260200190815260200160002060009054906101000a900460ff168015611d1e5750600a60008373ffffffffffffffffffffffffffffffffffffffff1673ffffffffffffffffffffffffffffffffffffffff16815260200190815260200160002060008473ffffffffffffffffffffffffffffffffffffffff1673ffffffffffffffffffffffffffffffffffffffff16815260200190815260200160002060009054906101000a900460ff165b1515611d2957600080fd5b600760008473ffffffffffffffffffffffffffffffffffffffff1673ffffffffffffffffffffffffffffffffffffffff16815260200190815260200160002060009054906101000a900460ff16158015611dcd5750600760008373ffffffffffffffffffffffffffffffffffffffff1673ffffffffffffffffffffffffffffffffffffffff16815260200190815260200160002060009054906101000a900460ff16155b1515611dd857600080fd5b600854600660008573ffffffffffffffffffffffffffffffffffffffff1673ffffffffffffffffffffffffffffffffffffffff16815260200190815260200160002054111515611e2757600080fd5b600854600660008473ffffffffffffffffffffffffffffffffffffffff1673ffffffffffffffffffffffffffffffffffffffff16815260200190815260200160002054111515611e7657600080fd5b600854600660008573ffffffffffffffffffffffffffffffffffffffff1673ffffffffffffffffffffffffffffffffffffffff16815260200190815260200160002060008282540392505081905550600854600660008473ffffffffffffffffffffffffffffffffffffffff1673ffffffffffffffffffffffffffffffffffffffff16815260200190815260200160002060008282540392505081905550600854600960008573ffffffffffffffffffffffffffffffffffffffff1673ffffffffffffffffffffffffffffffffffffffff16815260200190815260200160002060008282540192505081905550600854600960008473ffffffffffffffffffffffffffffffffffffffff1673ffffffffffffffffffffffffffffffffffffffff168152602001908152602001600020600082825401925050819055506001600b60008573ffffffffffffffffffffffffffffffffffffffff1673ffffffffffffffffffffffffffffffffffffffff16815260200190815260200160002060008473ffffffffffffffffffffffffffffffffffffffff1673ffffffffffffffffffffffffffffffffffffffff16815260200190815260200160002060006101000a81548160ff0219169083151502179055506001600b60008473ffffffffffffffffffffffffffffffffffffffff1673ffffffffffffffffffffffffffffffffffffffff16815260200190815260200160002060008573ffffffffffffffffffffffffffffffffffffffff1673ffffffffffffffffffffffffffffffffffffffff16815260200190815260200160002060006101000a81548160ff0219169083151502179055507f6dbd6d532fbe3eee7c3038c63f3af0a384600c3919c6254fb2e1069a6a64764b8383604051808373ffffffffffffffffffffffffffffffffffffffff1673ffffffffffffffffffffffffffffffffffffffff1681526020018273ffffffffffffffffffffffffffffffffffffffff1673ffffffffffffffffffffffffffffffffffffffff1681526020019250505060405180910390a16001905092915050565b600260009054906101000a900460ff1681565b600a6000601160009054906101000a900473ffffffffffffffffffffffffffffffffffffffff1673ffffffffffffffffffffffffffffffffffffffff1673ffffffffffffffffffffffffffffffffffffffff16815260200190815260200160002060003373ffffffffffffffffffffffffffffffffffffffff1673ffffffffffffffffffffffffffffffffffffffff16815260200190815260200160002060009054906101000a900460ff1680156122f05750600a60003373ffffffffffffffffffffffffffffffffffffffff1673ffffffffffffffffffffffffffffffffffffffff1681526020019081526020016000206000601160009054906101000a900473ffffffffffffffffffffffffffffffffffffffff1673ffffffffffffffffffffffffffffffffffffffff1673ffffffffffffffffffffffffffffffffffffffff16815260200190815260200160002060009054906101000a900460ff165b15156122fb57600080fd5b436012541115801561230f57506013544311155b151561231a57600080fd5b600c600e60003373ffffffffffffffffffffffffffffffffffffffff1673ffffffffffffffffffffffffffffffffffffffff1681526020019081526020016000205481548110151561236857fe5b906000526020600020900160000160019054906101000a900460ff1615151561239057600080fd5b600181141561248457600d6000601160009054906101000a900473ffffffffffffffffffffffffffffffffffffffff1673ffffffffffffffffffffffffffffffffffffffff1673ffffffffffffffffffffffffffffffffffffffff168152602001908152602001600020600001600081548092919060010191905055506001600c600e60003373ffffffffffffffffffffffffffffffffffffffff1673ffffffffffffffffffffffffffffffffffffffff1681526020019081526020016000205481548110151561245d57fe5b906000526020600020900160000160006101000a81548160ff021916908360ff1602179055505b600081141561257857600d6000601160009054906101000a900473ffffffffffffffffffffffffffffffffffffffff1673ffffffffffffffffffffffffffffffffffffffff1673ffffffffffffffffffffffffffffffffffffffff168152602001908152602001600020600101600081548092919060010191905055506000600c600e60003373ffffffffffffffffffffffffffffffffffffffff1673ffffffffffffffffffffffffffffffffffffffff1681526020019081526020016000205481548110151561255157fe5b906000526020600020900160000160006101000a81548160ff021916908360ff1602179055505b6001600c600e60003373ffffffffffffffffffffffffffffffffffffffff1673ffffffffffffffffffffffffffffffffffffffff168152602001908152602001600020548154811015156125c857fe5b906000526020600020900160000160016101000a81548160ff02191690831515021790555050565b600b6020528160005260406000206020528060005260406000206000915091509054906101000a900460ff1681565b60055481565b6000600960008373ffffffffffffffffffffffffffffffffffffffff1673ffffffffffffffffffffffffffffffffffffffff168152602001908152602001600020549050919050565b6000600c600e60008473ffffffffffffffffffffffffffffffffffffffff1673ffffffffffffffffffffffffffffffffffffffff168152602001908152602001600020548154811015156126be57fe5b906000526020600020900160000160009054906101000a900460ff1660ff169050919050565b6000600660008373ffffffffffffffffffffffffffffffffffffffff1673ffffffffffffffffffffffffffffffffffffffff168152602001908152602001600020549050919050565b6000600a60008473ffffffffffffffffffffffffffffffffffffffff1673ffffffffffffffffffffffffffffffffffffffff16815260200190815260200160002060008373ffffffffffffffffffffffffffffffffffffffff1673ffffffffffffffffffffffffffffffffffffffff16815260200190815260200160002060009054906101000a900460ff16905092915050565b6000600d6000601160009054906101000a900473ffffffffffffffffffffffffffffffffffffffff1673ffffffffffffffffffffffffffffffffffffffff1673ffffffffffffffffffffffffffffffffffffffff16815260200190815260200160002060010154600d6000601160009054906101000a900473ffffffffffffffffffffffffffffffffffffffff1673ffffffffffffffffffffffffffffffffffffffff1673ffffffffffffffffffffffffffffffffffffffff1681526020019081526020016000206000015411905090565b60006001600a60003373ffffffffffffffffffffffffffffffffffffffff1673ffffffffffffffffffffffffffffffffffffffff16815260200190815260200160002060008473ffffffffffffffffffffffffffffffffffffffff1673ffffffffffffffffffffffffffffffffffffffff16815260200190815260200160002060006101000a81548160ff02191690831515021790555060019050919050565b6000809054906101000a900473ffffffffffffffffffffffffffffffffffffffff1673ffffffffffffffffffffffffffffffffffffffff163373ffffffffffffffffffffffffffffffffffffffff1614151561298e57600080fd5b6000809054906101000a900473ffffffffffffffffffffffffffffffffffffffff1673ffffffffffffffffffffffffffffffffffffffff16ff5b60045481565b6000809054906101000a900473ffffffffffffffffffffffffffffffffffffffff1681565b6000600760003373ffffffffffffffffffffffffffffffffffffffff1673ffffffffffffffffffffffffffffffffffffffff16815260200190815260200160002060009054906101000a900460ff16151515612a4e57600080fd5b60045434811515612a5b57fe5b049050612a6930338361310c565b50565b612a7733838361310c565b5050565b60006001821415612af257600d6000601160009054906101000a900473ffffffffffffffffffffffffffffffffffffffff1673ffffffffffffffffffffffffffffffffffffffff1673ffffffffffffffffffffffffffffffffffffffff168152602001908152602001600020600001549050612b68565b6000821415612b6757600d6000601160009054906101000a900473ffffffffffffffffffffffffffffffffffffffff1673ffffffffffffffffffffffffffffffffffffffff1673ffffffffffffffffffffffffffffffffffffffff168152602001908152602001600020600101549050612b68565b5b919050565b600a6020528160005260406000206020528060005260406000206000915091509054906101000a900460ff1681565b60096020528060005260406000206000915090505481565b600c81815481101515612bc357fe5b90600052602060002090016000915090508060000160009054906101000a900460ff16908060000160019054906101000a900460ff16908060000160029054906101000a900473ffffffffffffffffffffffffffffffffffffffff16905083565b600e6020528060005260406000206000915090505481565b60055481023073ffffffffffffffffffffffffffffffffffffffff163110151515612c6657600080fd5b612c7133308361310c565b3373ffffffffffffffffffffffffffffffffffffffff166108fc60055483029081150290604051600060405180830381858888f193505050501515612cb557600080fd5b50565b60076020528060005260406000206000915054906101000a900460ff1681565b6000809054906101000a900473ffffffffffffffffffffffffffffffffffffffff1673ffffffffffffffffffffffffffffffffffffffff163373ffffffffffffffffffffffffffffffffffffffff16141515612d3357600080fd5b6001600760008373ffffffffffffffffffffffffffffffffffffffff1673ffffffffffffffffffffffffffffffffffffffff16815260200190815260200160002060006101000a81548160ff02191690831515021790555050565b6000809054906101000a900473ffffffffffffffffffffffffffffffffffffffff1673ffffffffffffffffffffffffffffffffffffffff163373ffffffffffffffffffffffffffffffffffffffff16141515612de957600080fd5b806000806101000a81548173ffffffffffffffffffffffffffffffffffffffff021916908373ffffffffffffffffffffffffffffffffffffffff16021790555050565b600f6020528060005260406000206000915054906101000a900460ff1681565b6000600f60008373ffffffffffffffffffffffffffffffffffffffff1673ffffffffffffffffffffffffffffffffffffffff16815260200190815260200160002060009054906101000a900460ff169050919050565b6000600a60008473ffffffffffffffffffffffffffffffffffffffff1673ffffffffffffffffffffffffffffffffffffffff16815260200190815260200160002060008373ffffffffffffffffffffffffffffffffffffffff1673ffffffffffffffffffffffffffffffffffffffff16815260200190815260200160002060006101000a81548160ff0219169083151502179055506000600a60008373ffffffffffffffffffffffffffffffffffffffff1673ffffffffffffffffffffffffffffffffffffffff16815260200190815260200160002060008473ffffffffffffffffffffffffffffffffffffffff1673ffffffffffffffffffffffffffffffffffffffff16815260200190815260200160002060006101000a81548160ff021916908315150217905550600854600660008473ffffffffffffffffffffffffffffffffffffffff1673ffffffffffffffffffffffffffffffffffffffff16815260200190815260200160002060008282540192505081905550600854600660008373ffffffffffffffffffffffffffffffffffffffff1673ffffffffffffffffffffffffffffffffffffffff16815260200190815260200160002060008282540192505081905550600854600960008473ffffffffffffffffffffffffffffffffffffffff1673ffffffffffffffffffffffffffffffffffffffff16815260200190815260200160002060008282540392505081905550600854600960008373ffffffffffffffffffffffffffffffffffffffff1673ffffffffffffffffffffffffffffffffffffffff168152602001908152602001600020600082825403925050819055505050565b80600660008573ffffffffffffffffffffffffffffffffffffffff1673ffffffffffffffffffffffffffffffffffffffff1681526020019081526020016000205411151561315957600080fd5b600660008373ffffffffffffffffffffffffffffffffffffffff1673ffffffffffffffffffffffffffffffffffffffff1681526020019081526020016000205481600660008573ffffffffffffffffffffffffffffffffffffffff1673ffffffffffffffffffffffffffffffffffffffff16815260200190815260200160002054011115156131e757600080fd5b80600660008573ffffffffffffffffffffffffffffffffffffffff1673ffffffffffffffffffffffffffffffffffffffff1681526020019081526020016000206000828254039250508190555080600660008473ffffffffffffffffffffffffffffffffffffffff1673ffffffffffffffffffffffffffffffffffffffff168152602001908152602001600020600082825401925050819055508173ffffffffffffffffffffffffffffffffffffffff168373ffffffffffffffffffffffffffffffffffffffff167fddf252ad1be2c89b69c2b068fc378daa952ba7f163c4a11628f55a4df523b3ef836040518082815260200191505060405180910390a3505050565b815481835581811511613312578183600052602060002091820191016133119190613317565b5b505050565b61338291905b8082111561337e57600080820160006101000a81549060ff02191690556000820160016101000a81549060ff02191690556000820160026101000a81549073ffffffffffffffffffffffffffffffffffffffff02191690555060010161331d565b5090565b905600a165627a7a7230582053b6eeadfb32128d9cf811e62d9539a1457069c7674f006d7f36f0c72aaf99210029",
  "source": "pragma solidity ^0.4.15;\r\n\r\nimport \"./Vouch.sol\";\r\n\r\ncontract Discredit is Vouch {\r\n\r\n\r\n    struct Voter {\r\n        uint8 voteType;\r\n        bool voted;\r\n        address voterAddress;\r\n    }\r\n\r\n    struct Count {\r\n        uint voteReal;\r\n        uint voteFake;\r\n    }\r\n\r\n    Voter[] public voters;\r\n    \r\n    mapping (address => Count) public count;\r\n    mapping (address => uint) public voterID;\r\n    mapping (address => bool) public blacklist;\r\n    uint numVoters;\r\n   \r\n    address upForVote;\r\n    uint startTime;\r\n    uint endTime;\r\n\r\n    modifier canVote {\r\n        require ((approvedConnections[upForVote][msg.sender]) && (approvedConnections[msg.sender][upForVote]));\r\n        require ((startTime <= block.number) && (block.number <= endTime));\r\n        _;\r\n    }\r\n\r\n    function Discredit (address target) { //Set address in deploy_contracts as accounts[1] from testrpc.\r\n        upForVote = target;\r\n        startTime = block.number;\r\n        endTime = block.number + 23600; //About a week's worth of blocks.\r\n    }\r\n\r\n    function register () canVote {\r\n        voters.push(Voter({\r\n            voteType: 2, //2 meaning no vote\r\n            voted: false,\r\n            voterAddress: msg.sender \r\n        }));\r\n        voterID[msg.sender] = (voters.length) - 1;\r\n    }\r\n\r\n    function castVote (uint voteType) canVote {\r\n        require (!(voters[voterID[msg.sender]].voted));\r\n        if (voteType == 1) {//1 here meaning \"Real\" account.\r\n        count[upForVote].voteReal++;\r\n        voters[voterID[msg.sender]].voteType = 1;\r\n        }\r\n        if (voteType == 0) {//0 here meaning \"Fake\" acount.\r\n        count[upForVote].voteFake++;\r\n        voters[voterID[msg.sender]].voteType = 0;\r\n        }\r\n        voters[voterID[msg.sender]].voted = true;\r\n    }\r\n\r\n    function executeOutcomes () {\r\n//        require (block.number >= endTime);\r\n        bool outcome = ((count[upForVote].voteReal) > (count[upForVote].voteFake));\r\n        for (uint32 i = 0; i<voters.length; i++) {\r\n            if ((voters[i].voteType == 0) && (outcome == false)) { //Voted fake, account fake.\r\n                IdentityFundBalance[upForVote] -= standardDeposit;\r\n                IdentityFundBalance[voters[i].voterAddress] -= standardDeposit;\r\n                balances[voters[i].voterAddress] += (standardDeposit * 2); //Receives fake account's deposit and his own is returned.\r\n                approvedConnections[voters[i].voterAddress][upForVote] = false;\r\n                approvedConnections[upForVote][voters[i].voterAddress] = false;\r\n            } else if ((voters[i].voteType == 1) && (outcome == false) || (voters[i].voteType == 2) && (outcome == false)) { //Voted real or abstained, account fake.\r\n                IdentityFundBalance[upForVote] -= standardDeposit;\r\n                IdentityFundBalance[voters[i].voterAddress] -= standardDeposit;\r\n                balances[this] += (standardDeposit * 2);\r\n                approvedConnections[voters[i].voterAddress][upForVote] = false;\r\n                approvedConnections[upForVote][voters[i].voterAddress] = false;                \r\n                isFrozen[upForVote] = true;\r\n                blacklist[voters[i].voterAddress] = true;\r\n            } else if ((voters[i].voteType == 0) && (outcome == true)) { //Voted fake, account real.\r\n                IdentityFundBalance[voters[i].voterAddress] -= standardDeposit;\r\n                balances[upForVote] += standardDeposit;\r\n                approvedConnections[voters[i].voterAddress][upForVote] = false;\r\n                approvedConnections[upForVote][voters[i].voterAddress] = false;            \r\n            } else if ((voters[i].voteType == 2) && (outcome == true)) { //Voter abstained, account real.\r\n                disconnect(upForVote, voters[i].voterAddress);\r\n            } else {} //Voted real, account real.\r\n        }\r\n    }\r\n\r\n    function getVoteType (address target) returns (uint) {\r\n        return voters[voterID[target]].voteType;\r\n    }\r\n\r\n    function getVoteCount (uint voteType) returns (uint) {\r\n        if (voteType == 1)\r\n        return count[upForVote].voteReal;\r\n        if (voteType == 0)\r\n        return count[upForVote].voteFake;\r\n    }\r\n\r\n    function getOutcome () returns (bool) {\r\n//        require (block.number >= endTime);\r\n        return ((count[upForVote].voteReal) > (count[upForVote].voteFake));\r\n    }\r\n\r\n    function isBlacklisted (address addr) returns (bool) {\r\n        return blacklist[addr];\r\n    }\r\n}",
  "sourcePath": "C:\\Users\\Pryce\\Google Drive\\Projects\\Vouch\\contracts\\Discredit.sol",
  "compiler": {
    "name": "solc",
    "version": "0.4.18+commit.9cf6e910.Emscripten.clang"
  },
  "schemaVersion": "1.0.1",
  "updatedAt": "2017-12-02T09:21:42.124Z"
}